{"abi":[{"type":"constructor","inputs":[{"name":"_identityVerificationHub","type":"address","internalType":"address"},{"name":"_scope","type":"uint256","internalType":"uint256"},{"name":"_attestationId","type":"uint256","internalType":"uint256"},{"name":"_olderThanEnabled","type":"bool","internalType":"bool"},{"name":"_olderThan","type":"uint256","internalType":"uint256"},{"name":"_forbiddenCountriesEnabled","type":"bool","internalType":"bool"},{"name":"_forbiddenCountriesListPacked","type":"uint256[4]","internalType":"uint256[4]"},{"name":"_ofacEnabled","type":"bool[3]","internalType":"bool[3]"}],"stateMutability":"nonpayable"},{"type":"function","name":"owner","inputs":[],"outputs":[{"name":"","type":"address","internalType":"address"}],"stateMutability":"view"},{"type":"function","name":"renounceOwnership","inputs":[],"outputs":[],"stateMutability":"nonpayable"},{"type":"function","name":"transferOwnership","inputs":[{"name":"newOwner","type":"address","internalType":"address"}],"outputs":[],"stateMutability":"nonpayable"},{"type":"function","name":"verifySelfProof","inputs":[{"name":"proof","type":"tuple","internalType":"struct IVcAndDiscloseCircuitVerifier.VcAndDiscloseProof","components":[{"name":"a","type":"uint256[2]","internalType":"uint256[2]"},{"name":"b","type":"uint256[2][2]","internalType":"uint256[2][2]"},{"name":"c","type":"uint256[2]","internalType":"uint256[2]"},{"name":"pubSignals","type":"uint256[21]","internalType":"uint256[21]"}]}],"outputs":[],"stateMutability":"nonpayable"},{"type":"event","name":"OwnershipTransferred","inputs":[{"name":"previousOwner","type":"address","indexed":true,"internalType":"address"},{"name":"newOwner","type":"address","indexed":true,"internalType":"address"}],"anonymous":false},{"type":"error","name":"INSUFFICIENT_CHARCODE_LEN","inputs":[]},{"type":"error","name":"InvalidAttestationId","inputs":[]},{"type":"error","name":"InvalidDateLength","inputs":[]},{"type":"error","name":"InvalidDayRange","inputs":[]},{"type":"error","name":"InvalidFieldElement","inputs":[]},{"type":"error","name":"InvalidMonthRange","inputs":[]},{"type":"error","name":"InvalidScope","inputs":[]},{"type":"error","name":"InvalidYearRange","inputs":[]},{"type":"error","name":"OwnableInvalidOwner","inputs":[{"name":"owner","type":"address","internalType":"address"}]},{"type":"error","name":"OwnableUnauthorizedAccount","inputs":[{"name":"account","type":"address","internalType":"address"}]},{"type":"error","name":"RegisteredNullifier","inputs":[]}],"bytecode":{"object":"0x60a060405234801561000f575f5ffd5b5060405161197638038061197683398101604081905261002e916102b2565b336001600160a01b0389166080525f88905560018790556002805460ff199081168815151790915560038690556004805490911685151517815589908990899089908990899089908990610086906005908490610134565b506100946009826003610172565b5050506001600160a01b03871695506100cc94505050505057604051631e4fbdf760e01b81525f600482015260240160405180910390fd5b6100d5816100e3565b50505050505050505061037c565b600a80546001600160a01b038381166001600160a01b0319831681179093556040519116919082907f8be0079c531659141344cd1fd0a4f28419497f9722a3daafe3b4186f6b6457e0905f90a35050565b8260048101928215610162579160200282015b82811115610162578251825591602001919060010190610147565b5061016e9291506101f8565b5090565b600183019183908215610162579160200282015f5b838211156101c357835183826101000a81548160ff02191690831515021790555092602001926001016020815f01049283019260010302610187565b80156101ef5782816101000a81549060ff02191690556001016020815f010492830192600103026101c3565b505061016e9291505b5b8082111561016e575f81556001016101f9565b8051801515811461021b575f5ffd5b919050565b604051601f8201601f191681016001600160401b038111828210171561025457634e487b7160e01b5f52604160045260245ffd5b604052919050565b5f82601f83011261026b575f5ffd5b6102756060610220565b806060840185811115610286575f5ffd5b845b818110156102a7576102998161020c565b845260209384019301610288565b509095945050505050565b5f5f5f5f5f5f5f5f6101a0898b0312156102ca575f5ffd5b88516001600160a01b03811681146102e0575f5ffd5b60208a015160408b0151919950975095506102fd60608a0161020c565b60808a0151909550935061031360a08a0161020c565b92508960df8a0112610323575f5ffd5b61032d6080610220565b806101408b018c81111561033f575f5ffd5b60c08c015b8181101561035c578051845260209384019301610344565b5081945061036a8d8261025c565b93505050509295985092959890939650565b6080516115e26103945f395f6101b801526115e25ff3fe608060405234801561000f575f5ffd5b506004361061004a575f3560e01c8063715018a61461004e5780638da5cb5b14610058578063f2fde38b14610077578063fdc609671461008a575b5f5ffd5b61005661009d565b005b600a54604080516001600160a01b039092168252519081900360200190f35b610056610085366004610fcf565b6100b0565b610056610098366004611126565b6100f2565b6100a5610359565b6100ae5f610386565b565b6100b8610359565b6001600160a01b0381166100e657604051631e4fbdf760e01b81525f60048201526024015b60405180910390fd5b6100ef81610386565b50565b606081015161026001515f541461011c5760405163725a844f60e01b815260040160405180910390fd5b6060810151610100015160015414610147576040516309763aff60e11b815260040160405180910390fd5b606081015160e001515f908152600b602052604090205460ff161561017f57604051631165e35160e11b815260040160405180910390fd5b6040805160c08101825260025460ff90811615158252600354602083015260048054909116151582840152825160808101938490525f937f00000000000000000000000000000000000000000000000000000000000000006001600160a01b03169363d1ea63a29390926060840192909160059182845b8154815260200190600101908083116101f657505050918352505060408051606081019182905260209092019190600990600390825f855b825461010083900a900460ff16151581526020600192830181810494850194909303909202910180841161022e57905050505050508152602001858152506040518263ffffffff1660e01b815260040161028891906112b9565b61018060405180830381865afa1580156102a4573d5f5f3e3d5ffd5b505050506040513d601f19601f820116820180604052508101906102c891906113bf565b90506102d78160a001516103d7565b156102fd5760608101515f908152600b60205260409020805460ff191660011790555050565b60405162461bcd60e51b815260206004820152602b60248201527f4e6f7420656c696769626c653a204e6f742077697468696e203520646179732060448201526a6f6620626972746864617960a81b60648201526084016100dd565b600a546001600160a01b031633146100ae5760405163118cdaa760e01b81523360048201526024016100dd565b600a80546001600160a01b038381166001600160a01b0319831681179093556040519116919082907f8be0079c531659141344cd1fd0a4f28419497f9722a3daafe3b4186f6b6457e0905f90a35050565b5f5f6103e2836105c1565b90505f6103ee8261074b565b60408051600280825281830190925291925082915f9160208201818036833750506040805160028082528183019092529293505f929150602082018180368337019050509050825f81518110610446576104466111d1565b602001015160f81c60f81b825f81518110610463576104636111d1565b60200101906001600160f81b03191690815f1a9053508260018151811061048c5761048c6111d1565b602001015160f81c60f81b826001815181106104aa576104aa6111d1565b60200101906001600160f81b03191690815f1a905350826003815181106104d3576104d36111d1565b602001015160f81c60f81b815f815181106104f0576104f06111d1565b60200101906001600160f81b03191690815f1a90535082600481518110610519576105196111d1565b602001015160f81c60f81b81600181518110610537576105376111d1565b60200101906001600160f81b03191690815f1a905350604051829082905f906105669083908590602001611457565b60405160208183030381529060405290505f61058182610768565b9050425f8282111561059e576105978383611492565b90506105ab565b6105a88284611492565b90505b6206978010159c9b505050505050505050505050565b80516060907f30644e72e131a029b85045b68181585d2833e84879b9709143e1f593f0000001111580610618575060208201517f30644e72e131a029b85045b68181585d2833e84879b9709143e1f593f000000111155b80610647575060408201517f30644e72e131a029b85045b68181585d2833e84879b9709143e1f593f000000111155b1561066557604051633ae4ed6b60e01b815260040160405180910390fd5b60408051606081018252601f80825260208201819052818301528151605d8082526080820190935290915f91906020820181803683370190505090505f805b6003811015610741575f8682600381106106c0576106c06111d1565b602002015190505f5b8583600381106106db576106db6111d1565b602002015160ff168160ff161015610737578160ff1660f81b858580610700906114a5565b965081518110610712576107126111d1565b60200101906001600160f81b03191690815f1a90535060089190911c906001016106c9565b50506001016106a4565b5090949350505050565b606061076261075d836039603e610936565b610a2a565b92915050565b80515f90829060061461078e5760405163b337595360e01b815260040160405180910390fd5b603160f81b816002815181106107a6576107a66111d1565b01602001516001600160f81b03191611806108155750806002815181106107cf576107cf6111d1565b6020910101516001600160f81b031916603160f81b1480156108155750601960f91b81600381518110610804576108046111d1565b01602001516001600160f81b031916115b15610833576040516304bcc4f160e31b815260040160405180910390fd5b603360f81b8160048151811061084b5761084b6111d1565b01602001516001600160f81b03191611806108ba575080600481518110610874576108746111d1565b6020910101516001600160f81b031916603360f81b1480156108ba5750603160f81b816005815181106108a9576108a96111d1565b01602001516001600160f81b031916115b156108d857604051638930acef60e01b815260040160405180910390fd5b5f6108ed6108e8855f6002610bf9565b610cba565b6108f9906107d06114bd565b90505f61090c6108e88660026004610bf9565b90505f61091f6108e88760046006610bf9565b905061092c838383610d26565b9695505050505050565b6060818451116109595760405163fe9a439f60e01b815260040160405180910390fd5b5f6109648484611492565b61096f9060016114bd565b67ffffffffffffffff81111561098757610987610ffc565b6040519080825280601f01601f1916602001820160405280156109b1576020820181803683370190505b509050835b838111610a21578581815181106109cf576109cf6111d1565b01602001516001600160f81b031916826109e98784611492565b815181106109f9576109f96111d1565b60200101906001600160f81b03191690815f1a90535080610a19816114a5565b9150506109b6565b50949350505050565b80516060908290600614610a515760405163b337595360e01b815260040160405180910390fd5b603160f81b81600281518110610a6957610a696111d1565b01602001516001600160f81b0319161180610ad8575080600281518110610a9257610a926111d1565b6020910101516001600160f81b031916603160f81b148015610ad85750601960f91b81600381518110610ac757610ac76111d1565b01602001516001600160f81b031916115b15610af6576040516304bcc4f160e31b815260040160405180910390fd5b603360f81b81600481518110610b0e57610b0e6111d1565b01602001516001600160f81b0319161180610b7d575080600481518110610b3757610b376111d1565b6020910101516001600160f81b031916603360f81b148015610b7d5750603160f81b81600581518110610b6c57610b6c6111d1565b01602001516001600160f81b031916115b15610b9b57604051638930acef60e01b815260040160405180910390fd5b5f610ba8845f6002610bf9565b90505f610bb88560026004610bf9565b90505f610bc88660046006610bf9565b9050808284604051602001610bdf939291906114d0565b604051602081830303815290604052945050505050919050565b6060835f610c078585611492565b67ffffffffffffffff811115610c1f57610c1f610ffc565b6040519080825280601f01601f191660200182016040528015610c49576020820181803683370190505b509050845b84811015610cb057828181518110610c6857610c686111d1565b01602001516001600160f81b03191682610c828884611492565b81518110610c9257610c926111d1565b60200101906001600160f81b03191690815f1a905350600101610c4e565b5095945050505050565b80515f9082908203610cce57505f92915050565b5f80805b8351811015610a21576030848281518110610cef57610cef6111d1565b0160200151610d01919060f81c611505565b60ff16925082610d1283600a61151e565b610d1c91906114bd565b9150600101610cd2565b5f5f6107b2851080610d39575061083485115b15610d57576040516305bd032560e21b815260040160405180910390fd5b6001841080610d665750600c84115b15610d84576040516304bcc4f160e31b815260040160405180910390fd5b506107b25b848161ffff161015610ddf57610da28161ffff16610f31565b15610dbc57610db56301e28500836114bd565b9150610dcd565b610dca6301e13380836114bd565b91505b80610dd781611535565b915050610d89565b610de7610fb0565b601f8152610df486610f31565b15610e0557601d6020820152610e0d565b601c60208201525b601f60408201819052601e606083018190526080830182905260a0830181905260c0830182905260e08301829052610100830181905261012083018290526101408301526101608201526001841080610e88575080610e6d600187611492565b600c8110610e7d57610e7d6111d1565b602002015160ff1684115b15610ea657604051638930acef60e01b815260040160405180910390fd5b600191505b848261ffff161015610f0f5780610ec3600184611555565b61ffff16600c8110610ed757610ed76111d1565b6020020151610eec9060ff166201518061156f565b610efb9062ffffff16846114bd565b925081610f0781611535565b925050610eab565b610f1a600185611492565b610f27906201518061151e565b61092c90846114bd565b5f6107b2821080610f43575061083482115b15610f61576040516305bd032560e21b815260040160405180910390fd5b610f6c60048361158d565b15610f7857505f919050565b610f8360648361158d565b15610f9057506001919050565b610f9c6101908361158d565b15610fa857505f919050565b506001919050565b604051806101800160405280600c906020820280368337509192915050565b5f60208284031215610fdf575f5ffd5b81356001600160a01b0381168114610ff5575f5ffd5b9392505050565b634e487b7160e01b5f52604160045260245ffd5b6040516080810167ffffffffffffffff8111828210171561103357611033610ffc565b60405290565b60405160e0810167ffffffffffffffff8111828210171561103357611033610ffc565b604051601f8201601f1916810167ffffffffffffffff8111828210171561108557611085610ffc565b604052919050565b5f82601f83011261109c575f5ffd5b5f6110a7604061105c565b90508060408401858111156110ba575f5ffd5b845b818110156110d45780358352602092830192016110bc565b509195945050505050565b5f82601f8301126110ee575f5ffd5b5f6102a06110fb8161105c565b91508301818582111561110c575f5ffd5b845b828110156110d457803582526020918201910161110e565b5f6103a0828403128015611138575f5ffd5b50611141611010565b61114b848461108d565b815283605f84011261115b575f5ffd5b60406111668161105c565b8060c0860187811115611177575f5ffd5b604087015b8181101561119d5761118e898261108d565b8452602090930192840161117c565b508160208601526111ae888261108d565b6040860152505050506111c58461010085016110df565b60608201529392505050565b634e487b7160e01b5f52603260045260245ffd5b805f5b600381101561120957815115158452602093840193909101906001016111e8565b50505050565b805f5b6002811015611209578151845260209384019390910190600101611212565b61123c82825161120f565b6020810151604083015f5b60028110156112715761125b82845161120f565b6020929092019160409190910190600101611247565b505050604081015161128660c084018261120f565b50606081015161010083015f5b60158110156112b2578251825260209283019290910190600101611293565b5050505050565b5f6104e082019050825115158252602083015160208301526040830151151560408301526060830151606083015f5b60048110156113075782518252602092830192909101906001016112e8565b505050608083015161131c60e08401826111e5565b5060a0830151611330610140840182611231565b5092915050565b5f611342606061105c565b9050806060830184811115611355575f5ffd5b835b8181101561136f578051835260209283019201611357565b50505092915050565b5f82601f830112611387575f5ffd5b5f611392608061105c565b90508060808401858111156113a5575f5ffd5b845b818110156110d45780518352602092830192016113a7565b5f6101808284031280156113d1575f5ffd5b506113da611039565b825181526020808401519082015260408084015190820152606080840151908201526080808401519082015260bf83018413611414575f5ffd5b6114218460a08501611337565b60a0820152611434846101008501611378565b60c08201529392505050565b5f81518060208401855e5f93019283525090919050565b61323560f01b81525f6114766114706002840186611440565b84611440565b949350505050565b634e487b7160e01b5f52601160045260245ffd5b818103818111156107625761076261147e565b5f600182016114b6576114b661147e565b5060010190565b808201808211156107625761076261147e565b5f6114db8286611440565b602d60f81b81526114ef6001820186611440565b9050602d60f81b815261092c6001820185611440565b60ff82811682821603908111156107625761076261147e565b80820281158282048414176107625761076261147e565b5f61ffff821661ffff810361154c5761154c61147e565b60010192915050565b61ffff82811682821603908111156107625761076261147e565b62ffffff81811683821602908116908181146113305761133061147e565b5f826115a757634e487b7160e01b5f52601260045260245ffd5b50069056fea2646970667358221220a559e5324ca1293100427548800619b3a24052a68f01338cb51eed8beb10cf7364736f6c634300081c0033","linkReferences":{}},"methodIdentifiers":{"owner()":"8da5cb5b","renounceOwnership()":"715018a6","transferOwnership(address)":"f2fde38b","verifySelfProof((uint256[2],uint256[2][2],uint256[2],uint256[21]))":"fdc60967"},"id":33}